:020000040800F2
:10000000180B002001010008932D0008DD280008CE
:10001000912D0008ED0E0008853400080000000056
:10002000000000000000000000000000492E000851
:10003000AF0F000800000000952D00087D2E00087D
:100040001B0100081B0100081B0100081B01000820
:100050001B0100081B0100081B0100081B01000810
:100060001B0100081B0100081B0100081B01000800
:100070003D0F0008490F0008550F0008610F0008E8
:100080006D0F0008790F00081B0100081B01000814
:100090001B0100081B0100081B0100081B010008D0
:1000A0001B0100081B0100081B0100081B010008C0
:1000B0001B010008D12E0008DD2E00081B010008DE
:1000C0001B0100081B0100081B0100081B010008A0
:1000D0001B01000895330008E133000831340008A3
:1000E0001B0100081B0100081B010008DFF80CD0F1
:1000F00000F0BAFB0048004745370008180B002005
:100100000648804706480047FEE7FEE7FEE7FEE7B1
:10011000FEE7FEE7FEE7FEE7FEE7FEE7CF2E00087C
:10012000ED000008202A04DB203A21FA02F0002129
:10013000704721FA02F3D040C2F1200291400843F7
:1001400019467047D2B201E000F8012B491EFBD2DC
:1001500070470022F6E710B513460A4604461946D2
:10016000FFF7F0FF204610BD034611F8012B00F801
:10017000012B002AF9D118467047000070B50F4DC9
:1001800000B92868002412E00A4602E09E4203D02B
:10019000521C1378002BF9D1DAB2224305D02BB1CF
:1001A00024B1002100F8011B04E00446401C06783D
:1001B000002EE9D12860204670BD000034000020E8
:1001C00070B5064603F094F9046805460A2200213A
:1001D000304600F00DFA2C6070BD2DE9FE4F8046D0
:1001E00081EA0300C00F0C46009021F0004123F08B
:1001F0000045B8EB0200A94105D240462146904691
:100200001C460B46024623F00040104347D0270D02
:10021000C7F30A00C3F30A510290401A0190402824
:100220006BDAC3F3130040F4801B0098924620B1B0
:100230000023D2EB030A63EB0B0B01985946C0F184
:100240004002504600F065F906460D4650465946B4
:10025000019A00F06DF910EB08006141002487EA73
:10026000115284EAE7731A4340D0009A62B3019AAC
:10027000012A4FEA075215DC001B61EB02014FF027
:10028000004202EA0752CDE90042001C41F580110C
:1002900032462B4600F02AFA03B0BDE8F08F404604
:1002A0002146F9E7001B61EB0201001C41F58013B8
:1002B00000185B412018A2F5001747EB030140EA44
:1002C000D570B6196D4111E06D084FEA360645EA62
:1002D000C0754FEA0752001B61EB0201001C41F59B
:1002E000801149084FEA30000019514132462B462F
:1002F00003B0BDE8F04F00F0EAB9009801224000D9
:100300000023D0EB020263EBE073009821464FEA32
:10031000E074B8EB000061EB0401E9E783F000430F
:100320005BE781F0004158E72DE9FE4F81EA0304C5
:1003300004F0004421F0004100944FF0000B23F042
:10034000004350EA01045ED052EA03045BD0C3F3D9
:100350000A54C1F30A552C44A4F2F3340194A0FBCF
:100360000254C1F3130141F48011C3F3130343F4A6
:10037000801301FB024400FB034E840A970A44EAFF
:10038000815447EA8357A4FB076802958D0A05FB51
:1003900007854FEA932C04FB0C542705029D4FEA76
:1003A000065847EA1637B5EB08056EEB070C870EC3
:1003B000920E47EA811742EA8312A7FB0201B6EBCD
:1003C0000B0164EB00042B0D43EA0C335E1844EB85
:1003D0001C50DA465146E7FB0201C5F313044FEA0D
:1003E0000B3343EA14534FEA0432019C43EA0603F9
:1003F000A4F10C040294009CCDE900B400F076F95D
:1004000003B0BDE8F08F00200146F9E70EB5C10F3B
:1004100080EAE0700844CA07002140F233438DE8C7
:100420000E000A460B4600F061F903B000BD0EB5A0
:1004300040F2334102910021CDE900110A460B46FA
:1004400000F054F903B000BD20F00040C10DC0F32E
:10045000160040F400007F2901DA00207047962939
:1004600003DCC1F19601C840704796398840704757
:1004700070B5C1F30A5201F000450024C1F3130125
:1004800040F2FF3341F480119A4201DA002070BD3E
:1004900040F233439A42A2F2334203DC5242FFF766
:1004A00041FE00E090402C43F1D0404270BD01F08D
:1004B000004330B421F0004150EA010206D00A0D99
:1004C000A2F56072C1F31301002A02DC30BC0020E7
:1004D0007047440F44EAC104C100E01830BC00EB8F
:1004E000C25000F0BDB830B50B46014600202022B6
:1004F000012409E021FA02F59D4205D303FA02F531
:10050000491B04FA02F52844151EA2F10102F1DC90
:1005100030BD202A04DB203A00FA02F100207047A7
:100520009140C2F1200320FA03F319439040704731
:10053000202A06DBCB17203A41FA02F043EAE073A7
:1005400006E041FA02F3D040C2F120029140084394
:10055000194670470FB4002300B589B00CA900916B
:100560000B996FF00042CB601E4B06931E4B079316
:100570000423CDE901321D4A089202466B46002051
:1005800000F026FA09B05DF814FB70B586B0064697
:100590004FF0FF300091CDE90101002015460C46D7
:1005A00004903246694604A8FFF7D4FF0246049837
:1005B000211825B108B1084600E0204628600498BB
:1005C00000280DD0002A02DD0098884208D0081BC0
:1005D0000094CDE901043246694604A8FFF7BAFF4A
:1005E00006B070BD090C0008270C0008950800082B
:1005F0002DE9F04791460F4680460446002614F840
:10060000015B2DB100F042F90068405DC007F6D1F2
:100610002B2D02D02D2D18D0641E4A463946204677
:1006200000F012FB27B13968A14201D1C7F8008060
:1006300071054FF002040BD54042002803DD02F0A3
:1006400057FF0460A007BDE8F08746F48066E4E742
:100650000028F8DA02F04CFF04606FF00040F2E787
:100660000029A8BF7047401C490008BF20F00100C6
:10067000704710B4B0FA80FC00FA0CF050EA0104A4
:1006800004BF10BC704749B1CCF1200421FA04F436
:1006900011FA0CF118BF012121430843A3EB0C010F
:1006A000CB1D4FEA00614FEA102042BF002010BC72
:1006B000704700EBC35010440029A4BF10BC704722
:1006C000401C490008BF20F0010010BC704710B565
:1006D000141E73F1000408DA401C41F10001921865
:1006E0005B411A4301D120F0010010BD2DE9F04D0E
:1006F00092469B4611B1B1FA81F202E0B0FA80F263
:1007000020329046FFF705FF04460F4640EA0A00F4
:1007100041EA0B0153465A46084313D0114653EAA7
:10072000010019D0C8F140025046FFF7FBFC054616
:100730000E46504659464246FFF7EBFE084305D0A9
:10074000012004E020463946BDE8F08D0020054335
:1007500046EAE0762C4337430A986305E40AA0EBA7
:1007600008000022FD0A44EA47540A3002D500205E
:100770000146E9E7010510196941DDE9084500195D
:100780006941BDE8F04DA2E72DE9F04D81EA03048F
:1007900004F0004B21F0004514464FF0000A23F00E
:1007A000004150EA050220D054EA01021DD0C5F3F1
:1007B0000A570246C5F31303C1F31300C1F30A56E7
:1007C00040F4801543F48013A7EB0608101BD646AF
:1007D00008F2FD3873EB050002D308F1010801E0CF
:1007E00092185B41B8F1000F03DA00200146BDE822
:1007F000F08D00204FF48011064684460EE0171B52
:1008000073EB050705D3121B63EB050306434CEAA4
:10081000010C49084FEA300092185B4150EA010789
:10082000EDD152EA030012D082EA040083EA050106
:10083000084305D0101BAB4106D20122002306E07D
:1008400000224FF0004302E06FF0010253101AEB58
:1008500006004CEB085110EB0A0041EB0B01BDE820
:10086000F04DFFF734BF0000064C074D06E0E0688E
:1008700040F0010394E8070098471034AC42F6D3E7
:10088000FFF738FCB0380008D0380008004870473F
:10089000AC38000810B50446FFF7F8FF0068005DAB
:1008A00000F0010010BD00002DE9FF4F087883B073
:1008B0009946FF2805D0491C2D2804D0002400208B
:1008C00008E000200BE00124F9E700EB800003EBD7
:1008D0004000491C0B78FF2BF7D104B140420023A4
:1008E0000293147819461D462D2C01D02B2C04D1CF
:1008F000521C2D2C13D000240294AA461478FF2CED
:100900000FD00A25A3FB057801FB05814FF0000CF1
:1009100003FB0C11521CE3194AEB0101EEE7012421
:10092000EAE7814453EA010002D019F5C87F06DAEC
:1009300003980021C0E9001107B0BDE8F08F002541
:10094000AE4E2F46DFF8B882184600F0DAF9CDE94E
:100950000001B9F1000002DAC9F1000400E0044628
:100960000023A74A1AEB030B42EB045A12E0E007FC
:1009700007D02A46334638464146FFF7D5FC07469E
:1009800088462A46334610461946FFF7CDFC0546F1
:100990000E466410002CEAD1DDE90001B9F1000F28
:1009A0005A46534606DAFFF7EFFE3A464346FFF74C
:1009B000EBFE05E0FFF7B8FC3A464346FFF7B4FC10
:1009C000029A0AB181F00041039AC2E90001B3E73B
:1009D0002DE9FF4F1F468DB0D7E901464FF0FF3894
:1009E0002E2045464FF000090B90B9696D1C0E98FA
:1009F0008847396A824688470028F6D1BAF1FF3F16
:100A00000AD024F4D064002E11DDBAF12B0F08D0E7
:100A1000BAF12D0F0BD102E0404611B08DE744F43E
:100A20008064B9696D1C0E9888478246761E6946B7
:100A3000600501D52D2000E02B208DF8000001F18C
:100A4000010B0DF1200809E0B9696D1C0E9888476B
:100A500082460F9844F40074761E0560002E02DD75
:100A6000BAF1300FF0D00B998A453ED144F08004A2
:100A700006E00F99681CA9F1010944F400740860AC
:100A8000B9696D1C761E0E98884782463028F0D0D2
:100A90002BE00B998A4505D1200603D444F080044D
:100AA000761E18E0504602F043FD08B30DF1130125
:100AB000761E44F400748B4508D2AAF130000BF87E
:100AC000010B200607D5A9F1010003E0200602D49E
:100AD00009F101008146A00502D50F99681C086044
:100AE000B9696D1C0E9888478246002ED1DC53E010
:100AF000002E51DDBAF1650F02D0BAF1450F4BD18E
:100B0000A00549D5B9696D1C24F44074761E0E9871
:100B100088478246002E0CDD2B2804D0BAF12D0F19
:100B200007D144F48074B9696D1C0E9888478246D9
:100B3000761EE00501D52D2100E02B2108F8011BD0
:100B4000CDF82C8021E00DF12901761E44F40074CB
:100B500088450CD2AAF1300010F0FF0088F80000A0
:100B600002D10B99884509D908F1010806E0E00592
:100B700001D5244801E042F20F708146B9696D1C2D
:100B80000E98884782460F980560002E04DD504677
:100B900002F0CEFC0028D6D1F9690E988847FF20D4
:100BA0008BF8000088F800000020069007904B4664
:100BB0006A4608A906A8FFF777FEA00502D46FF0E1
:100BC00001002AE714F0240F0AD0E00714D1DDE970
:100BD00006123868031D3B600068C0E900120BE094
:100BE000DDE90601FFF763FC0146E00704D1386840
:100BF000021D3A600068016028460EE700001440BC
:100C00000000F03FF1D8FFFF426842B1016811F8DF
:100C1000013B23B1521EC0E9001218467047012162
:100C2000C160881E704742685AB1C368016843B901
:100C300083688B4205D0491E521CC0E90012002077
:100C400070474FF0FF3070472DE9F05F8246007823
:100C5000002715468B460AF10104B946302801D019
:100C60009DB113E014F8010B0127782803D0582810
:100C700001D045B10AE00DB1102D07D10027102594
:100C800014F8010B02E0082500E00A250026B04612
:100C90000EE005FB080005FB06F1012701EB1046FD
:100CA0001FFA80F8B6F5803F00D3B94614F8010B5F
:100CB000294600F018F80028EBDABBF1000F05D048
:100CC0000FB1641E00E05446CBF80040B9F1000FAC
:100CD00006D002F00DFC02210160C81EBDE8F09FA5
:100CE00048EA0640FAE73A2800D2303820F02002DD
:100CF000412A01D3A2F13700884201D34FF0FF30DF
:100D000070470EB540F2334202920022CDE9002234
:100D10001346FFF7EBFC03B000BD39B1012907D042
:100D2000022907D0032905D100F0B4B800F004B8B7
:100D300000F046B87047000038B500211DA50C46EC
:100D400000912946FFF71AFA02461BA11B4802F040
:100D5000ABFB0EE014B1012C04D008E0174816A13B
:100D6000401F02E0154814A1401D02F09DFB641CC9
:100D7000E4B229460020FFF701FA020001D0022C5C
:100D8000E8D30E48FFF71CFA0C4C193CE06004F164
:100D90001E00FFF715FA206104F11400FFF710FAA6
:100DA000A0F540710090E73901D100F0A1F8A060F2
:100DB00038BD00002A000000257300001900002043
:100DC00070B50278314C3249413A4FF47A750B2AAA
:100DD00058D2DFE802F0262E384453570614221B5F
:100DE0000C0088685A2809DA88680A3005E08868A3
:100DF00010F10A0F02DD88680A38886070BDC86883
:100E00007828FBDAC8680A30C86070BDC86810F17D
:100E10003C0FFADDC8680A38F6E7002088601E201B
:100E2000F2E700222021204600F065FB012210217C
:100E300010E000221021204600F05DFB284600F063
:100E400053FA012205E000221021204600F053FB56
:100E5000002220212046BDE8704000F04CBB00225B
:100E60002021204600F047FB01221021204600F0FF
:100E700042FB41F2883000F037FADAE7BDE8704013
:100E800000F098B8BDE87040FFF756BF0008014079
:100E90000000002010B5017845291CD044291AD142
:100EA000302202700CA14270FFF768F902460BA1D4
:100EB0000B4802F0F9FA0A4802F023FC0022094B21
:100EC000FFF732FA0022084BFFF787F9FFF7D0FA55
:100ED00003491E39086110BD6D0000002573000034
:100EE0001E00002000408F400000E03FFEE70000B1
:100EF0000C4810B50069FFF789FA0B4A0B4BFFF756
:100F000013FA00220A4BFFF70FFA0022094BFFF7F2
:100F100005FA0022084BFFF760F9BDE81040FFF723
:100F2000A7BA000000000020FCA9F1D24D62503F9A
:100F300000002440000020400000E03F014800F095
:100F4000C3B8000008060020014800F0BDB800004A
:100F5000C4050020014800F0B7B80000F8040020E4
:100F6000014800F0B1B80000B4040020014800F0CE
:100F7000ABB800003C050020014800F0A5B8000017
:100F80008005002030B590F840500124AC40C56B7E
:100F90006C60046863604368102B036803D0996039
:100FA0000068C26030BD9A600068C16030BD7047A3
:100FB0007047000010B506A10648FFF7D5F8C82312
:100FC000BDE8104003220349034801F0ABBB000019
:100FD00069534D004C06002074040020C0F15A00F3
:100FE00080B270473C3080B2704710B590F8211045
:100FF0000022022905D00421816380F820200120ED
:1010000010BD01680B6823F00E030B6001680B68CC
:1010100023F001030B6090F84030C46B012101FA0A
:1010200003F3636080F8211080F82020104610BD83
:1010300010B590F821100024022903D00421816307
:1010400001243DE001680A6822F00E020A6001688E
:101050000A6822F001020A601A4A0168914201D12D
:10106000012121E0174A1432914201D110211BE0E5
:10107000144A2832914201D1891515E0114A3C32B7
:10108000914201D189140FE00E4A5032914202D1AF
:101090004FF4803108E00B4A6432914202D14FF4A0
:1010A000801101E04FF08071064A083A5160012139
:1010B00080F82110002180F82010416B01B1884791
:1010C000204610BD080002402DE9F05FC16B0C689E
:1010D00001680B68D0F840C0042202FA0CF2494DB6
:1010E000DFF824A1494E4A4FDFF828B1DFF828E1A4
:1010F00022422CD05A072AD50A68920603D40A68DD
:1011000022F004020A600168A94201D1042219E018
:10111000514501D1402215E0B14202D14FF4806225
:1011200010E0B94202D14FF480420BE0594502D1A0
:101130004FF4802206E0714502D14FF4800201E0B5
:101140004FF080622F4908394A60C16A3BE04FF096
:10115000020808FA0CF818EA040F4FF000094FF0E3
:10116000010235D05FEA837832D50B689B0605D43F
:101170000B6823F00A030B6080F821200168A94264
:1011800001D1022219E0514501D1202215E0B142DE
:1011900002D14FF4007210E0B94202D14FF4005274
:1011A0000BE0594502D14FF4003206E0714502D1FF
:1011B0004FF4001201E04FF00072124908394A6002
:1011C00080F82090816A00291AD0BDE8F05F0847B6
:1011D000082505FA0CF5254212D01B0710D50B681F
:1011E00023F00E030B6090F84010C36B02FA01F17C
:1011F0005960826380F8212080F82090016BE2E73B
:10120000BDE8F09F080002401C0002403000024090
:1012100044000240580002406C00024030B528B340
:1012200008C8134914221944B1FBF2F18900C163C3
:1012300010498163022141771A6843F6F0718A43AD
:10124000D0E900142143D0E902452C43214304692D
:1012500021434469214384692143114319600021DA
:101260004163012242770177084630BD012030BD3D
:10127000F8FFFDBF0000024070B5044690F8200062
:10128000002501280CD0012084F8200094F821606A
:101290000020012E06D084F820000225284670BDCB
:1012A000022070BD022684F82160A06320680668D1
:1012B00026F0010606602046FFF764FEE06A00287B
:1012C0002068016802D041F00E0106E021F004011F
:1012D00001602068016841F00A010160206801682E
:1012E00041F001010160D9E770B5044600F008F94A
:1012F0000546601C02D004480078044400F000F960
:10130000401BA042FAD370BD240000202DE9F84F05
:10131000DFF8B891002409F1040A0AF1040B23460E
:101320000F270BF1040EC9E00125A5402A40AA426F
:101330007DD1674ED1F804C0ACEB0608B44532D07D
:1013400014DCBCF1030F3AD009DCBCF1000F2AD049
:10135000BCF1010F1CD0BCF1020F31D11DE0BCF17A
:10136000110F17D0BCF1120F2AD119E0B8F5881F60
:1013700019D006DCB8F5803F15D0B8F5801F1FD115
:1013800011E0B8F5001F0ED0B8F5041F18D10AE01F
:10139000CB6815E0CB681B1D12E0CB6808330FE06B
:1013A000CB680C330CE08B682BB1012B4FF008039A
:1013B00003D0456104E0042302E0056100E000235E
:1013C000FF2A01D8064601E000F104064FEA840531
:1013D00001D9A5F12005D6F8008007FA05FC28EA16
:1013E0000C0803FA05F548EA0508C6F800804D68C0
:1013F000ED0062D5374DAE6946F00106AE61AD69CC
:1014000024F0030605F001050095334D06EB050CAD
:10141000DCF80850A607360F07FA06F825EA080593
:10142000DFF8B880404503D14FF0000817E044E0F2
:10143000DFF8AC80404502D14FF001080FE0DFF843
:10144000A480404502D14FF0020808E0DFF8988000
:10145000404502D14FF0030801E04FF0040808FABC
:1014600006F848EA0508CCF808804D68D9F800600D
:10147000ED034D4601D5164300E096432E604D68BE
:10148000DAF80060AD03554601D5164300E09643F7
:101490002E604D68DBF80060ED025D4601D5164315
:1014A00000E096432E604D68DEF80060AD027546A0
:1014B00001D5164300E096432E60641C0D682A4651
:1014C000E5407FF431AFBDE8F88F00000004014033
:1014D000000011100010024000000140000801400F
:1014E000000C0140001001400014014080680840D9
:1014F00000D0012070470AB1016170470904FBE781
:10150000014880687047000024000020024881687C
:10151000027811448160704724000020074810B50C
:10152000016841F010010160032000F079F800200B
:1015300000F006F800F024F8002010BD0020024062
:1015400070B50D4D04464FF47A712878B1FBF0F078
:101550000A490968B1FBF0F000F0F0FA48B9102C24
:1015600007D200222146501E00F03AF800206C609D
:1015700070BD012070BD000024000020300000205C
:101580000E4808B5816941F001018161816901F06E
:1015900001010091C16941F08051C161C06900F051
:1015A00080500090052000F03BF80548416821F08C
:1015B000E06141F08071416008BD00000010024010
:1015C00000000140002809DB00F01F0201219140CA
:1015D0004009800000F1E020C0F8001170470000D1
:1015E000F0B40E4B1B680C46C3F30223C3F107058E
:1015F000042D00D90425191D072901D2002300E07C
:10160000DB1E012606FA05F1491E214099409E4045
:10161000761E16403143F0BC01F05ABF0CED00E0DD
:10162000064900F0070208684FF6FF03184040EA39
:101630000220034A10430860704700000CED00E0F0
:101640000000FA052DE9F0470F46050061D0434E32
:10165000306800F00700B84209D2306820F0070077
:1016600038433060306800F00700B84251D1286834
:101670003B4C810712D5400703D5606840F4E06019
:1016800060602878000703D5606840F460506060AF
:101690006068A96820F0F000084360602878C007FF
:1016A00028D06868012810D02168022810D0890746
:1016B00000292EDA616821F0030101436160FFF720
:1016C0001FFF804641F288390DE021688903EFE76A
:1016D0008901EDE7FFF714FFA0EB0801494502D9A6
:1016E0000320BDE8F0876068696800F00C00B0EB8B
:1016F000810FEFD1306800F00700B8420BD9306895
:1017000020F0070038433060306800F00700B8422E
:1017100001D00120E5E72878400705D56068E96831
:1017200020F4E060084360602878000706D5606810
:10173000296920F4605040EAC100606000F038F888
:101740006168084AC1F30311515CC840064908604A
:1017500006480068FFF7F4FE0020C2E700200240C0
:10176000001002401038000830000020280000203F
:101770000448054900684968044AC1F30221515CE4
:10178000C840704730000020001002402038000898
:101790000448054900684968044AC1F3C221515C04
:1017A000C840704730000020001002402038000878
:1017B00012A185B00FC98DE80F0014A0144A00686B
:1017C00004905168134801F00C03042B10D0082B2F
:1017D0000ED1C1F38343C9031DF803000AD5516834
:1017E00004AAC1F34041515C0A4A5043B0FBF1F0F6
:1017F00005B0704708494843FAE7000002030405B2
:10180000060708090A0B0C0D0E0F1010010200004C
:101810000010024000127A0000093D002DE9F84F47
:10182000040070D02078C04DC00749D06868C0F36C
:101830008100012807D06868C0F38100022809D11F
:101840006868C00306D52868800339D56068002819
:10185000E7D035E06068B0F5803F0BD010B1B0F54F
:10186000A02F11D0286820F480302860286820F448
:10187000802002E0286840F480302860606890B1E1
:10188000FFF73EFE06460AE0286840F48020286004
:10189000F0E700BFFFF734FE801B642873D8286888
:1018A0008003F7D50CE0FFF72BFE064605E000BFEE
:1018B000FFF726FE801B6428F0D828688003F7D441
:1018C00020789A4E80074FF001094FF0000839D573
:1018D000686810F00C0F07D06868C0F38100022818
:1018E00009D16868C00306D42868800714D5206928
:1018F000012808D110E02069B0B1C6F80090FFF7C8
:10190000FFFD074605E00AE1FFF7FAFDC01B0228CC
:10191000C4D828688007F7D52868616920F0F800E6
:1019200040EAC10028600DE0C6F80080FFF7E8FD3E
:10193000074604E0FFF7E4FDC01B022823D828680F
:101940008007F7D4207800072CD57948A169D9B150
:10195000C0F80090FFF7D4FD074604E0FFF7D0FD84
:10196000C01B02280FD8686A8007F7D571484FF46A
:10197000FA510068B0FBF1F0009000BF0098411EE2
:101980000091FAD20EE080E0C0F80080FFF7B8FDC9
:10199000074604E0FFF7B4FDC01B022875D8686A4B
:1019A0008007F7D42078400760D5E8690027C00099
:1019B00008D4E86940F08050E861E869012700F048
:1019C000805000905C480168C90513D401688346C3
:1019D00041F480710160FFF793FD824606E000BF8D
:1019E000FFF78EFDA0EB0A0064284ED8DBF800005C
:1019F000C005F5D5E06801280AD008B1052813D044
:101A0000286A20F001002862286A20F0040002E021
:101A1000286A40F001002862E06841F2883B98B1F2
:101A2000FFF76EFD82460BE0286A40F00400286252
:101A3000EEE700BFFFF764FDA0EB0A0159455AD855
:101A4000286A8007F6D50CE0FFF75AFD824605E0CC
:101A5000FFF756FDA0EB0A0159454CD8286A8007CC
:101A6000F6D41FB1E86920F08050E861E06988B3DE
:101A70006968C1F38101022944D00228C6F8608058
:101A800004D0FFF73DFD044638E034E0FFF738FDB1
:101A9000074604E0FFF734FDC01B02282BD8286856
:101AA0008001F7D4206AB0F5803F05D16868A1684D
:101AB00020F4003008436860D4E9080108436968ED
:101AC00021F4741108436860C6F86090FFF718FDB0
:101AD000044606E025E000BFFFF712FD001B0228C8
:101AE00009D828688001F7D51BE000BFFFF708FD83
:101AF000001B022802D90320BDE8F88F2868800166
:101B0000F4D40EE00128F7D06868226A00F480312E
:101B1000914204D1616A00F47010884201D0012022
:101B2000EAE70020E8E7000000100240000042421F
:101B300080044242300000200070004010B5401E7A
:101B4000B0F1807F01D3012010BD4FF0E02460612F
:101B50000F21601701F0BCFC0020A061072020616C
:101B6000002010BD7047704770B590F83C20012AE6
:101B700026D0012480F83C40022280F83D200368F2
:101B80005A689D6822F070060A6832435A600D4B0D
:101B900002689A4208D0B2F1804F05D00A4B9A42AF
:101BA00002D00A4B9A4204D1496825F080031943B8
:101BB000916080F83D40002180F83C10084670BDDF
:101BC000022070BD002C01400004004000080040CD
:101BD00010B5040003D094F83D0010B107E00120D7
:101BE00010BD002084F83C00204600F01FF80220C1
:101BF00084F83D00211D206801F076F9012084F869
:101C0000460084F83E0084F83F0084F8400084F8E1
:101C1000410084F8420084F8430084F8440084F8CA
:101C2000450084F83D00002010BD000008B5154AAD
:101C30000168154891420ED1C16941F00201C161AC
:101C4000C069002200F00200009011461D20FFF73D
:101C5000C7FC1D2010E00D4A914211D1C16941F02D
:101C60000401C161C069002200F00400009003215A
:101C70001E20FFF7B5FC1E20BDE80840FFF7A2BC00
:101C800008BD0000000400400010024000080040B1
:101C900090F83D10012901D001207047022180F801
:101CA0003D100168CA6842F00102CA6000680B4931
:101CB000884208D0B0F1804F05D00949884202D04F
:101CC0000849884204D1816801F00701062903D040
:101CD000016841F00101016000207047002C0140C3
:101CE000000400400008004070B5044690F83C0035
:101CF000012817D0012584F83C50022084F83D00CB
:101D00002068826822F0770222F47F4282600868AD
:101D1000502830D00DDC20284DD005DC98B3102899
:101D20003BD148E0022070BD302844D0402834D157
:101D300039E0602828D0702806D0B0F5805F2CD01C
:101D4000B0F5005F29D10AE0CB68D1E90121206814
:101D500001F00DF92068816841F0770109E0CB6856
:101D6000D1E90121206801F002F92068816841F47D
:101D70008041816011E0CA684968206801F0ACF9CF
:101D80005021206807E016E0CA684968206801F021
:101D9000B4F96021206801F0F4F884F83D50002087
:101DA00084F83C0070BDCA684968206801F094F965
:101DB00040212068EFE7226801461046EBE77047B4
:101DC00070B50446006801694FF00005C9438907F2
:101DD00015D4C168C943890711D4E91E01610120E6
:101DE0002077206880698007204602D0FFF7E7FF50
:101DF00004E000F0BFF8204600F04EF92577206897
:101E00000169C943490717D4C168C943490713D4B5
:101E10006FF004010161022020772068806910F4CE
:101E2000407F204602D0FFF7CAFF04E000F0A2F88E
:101E3000204600F031F9257720680169C943090778
:101E400016D4C168C943090712D46FF008010161B3
:101E5000042020772068C0698007204602D0FFF761
:101E6000AEFF04E000F086F8204600F015F9257773
:101E700020680169C943C90617D4C168C943C906A6
:101E800013D46FF010010161082020772068C06929
:101E900010F4407F204602D0FFF791FF04E000F0ED
:101EA00069F8204600F0F8F8257720680169C943F1
:101EB000C90708D1C168C943C90704D1891E016196
:101EC000204600F039F920680169C943090609D4A0
:101ED000C168C943090605D46FF08001016120463D
:101EE000FFF740FE20680169C943490609D4C1686B
:101EF000C943490605D46FF040010161204600F056
:101F00006BF920680169C94389060BD4C168C943CC
:101F1000890607D46FF0200101612046BDE87040BA
:101F2000FFF721BE70BD000000B585B00021009113
:101F300001910291039100680B49884211D10B482D
:101F4000816941F0040181618069694600F0040003
:101F50000490C02000900220019003900448FFF7F5
:101F6000D5F905B000BD000000040040001002409B
:101F700000080140704770B5044690F83C000D46DB
:101F800001280AD0012084F83C0042B1042A18D06C
:101F9000082A2AD00C2A4DD139E0022070BD2068D1
:101FA00000F0F8FF2068816941F008018161206834
:101FB000816921F004018161206881692A691143E6
:101FC00011E0206801F00EF82068816941F4006199
:101FD00081612068816921F4806181612068816963
:101FE0002A6941EA0221816124E0206801F026F893
:101FF0002068C16941F00801C1612068C16921F010
:102000000401C1612068C1692A69114311E0206897
:1020100001F040F82068C16941F40061C1612068A5
:10202000C16921F48061C1612068C1692A6941EAFE
:102030000221C161002084F83C0070BD10B504008D
:1020400003D094F83D0010B107E0012010BD00203E
:1020500084F83C00204600F01EF8022084F83D0081
:10206000211D206800F040FF012084F8460084F81C
:102070003E0084F83F0084F8400084F8410084F872
:10208000420084F8430084F8440084F8450084F852
:102090003D00002010BD70477047000010B5044699
:1020A000022249B104290ED0082913D094F8410026
:1020B000012816D0012010BD94F83E000128F9D166
:1020C00084F83E200FE094F83F000128F2D184F814
:1020D0003F2008E094F840000128EBD184F840202C
:1020E00001E084F841200122206800F033FF0F490D
:1020F0002068884203D1426C42F400424264206866
:10210000884208D0B0F1804F05D00949884202D0FA
:102110000849884204D1816801F00701062903D0EB
:10212000016841F001010160002010BD002C014058
:10213000000400400008004070B5054600681649DC
:10214000164C884211D1A06880B2FEF747FF00F01C
:102150007DFE114934310860E06880B2FEF742FF2D
:1021600000F074FE0C49383108600D492868884237
:1021700011D10C490CA001F087F90A4890F8C81059
:102180000CA001F081F92369A268E168BDE8704004
:102190000BA001F079B970BD0004004000000020E0
:1021A00000080040980200205B646174613A257366
:1021B0002000000073697A653A25645D0A0000001A
:1021C0005B7961773D25642070697463683D25649F
:1021D00020643D25645D0000704710B5044600682A
:1021E000416994F83920C1F3C011212A0BD151B1B2
:1021F000416921F080014161206B08B1FEF7F5FED5
:10220000204600F0EAFF2068416994F83A20C1F3C3
:102210008011222A0BD151B1416921F04001416165
:10222000606B08B1FEF7E1FE204600F0C8FF002019
:1022300010BD704770B5026804461068D1685369D4
:1022400010F00F0F52D003F0010501F490762E43E9
:102250005FD0C20705D0CA0503D5E26B42F0010288
:10226000E263420705D5DA0703D0E26B42F00202CF
:10227000E263820705D5DA0703D0E26B42F004027D
:10228000E263020707D501F020022A4303D0E26B84
:1022900042F00802E263E26B002A33D0800604D5E4
:1022A000880602D5204600F0A1FF20684069E16B56
:1022B000C0F38010090700D428B3204600F07FFF48
:1022C0002068416949061AD5416921F04001416100
:1022D000606BA0B12D494163606BFEF7A9FE002839
:1022E00010D0606B416BBDE870400847830610D585
:1022F0008B060ED52046BDE8704000F077BF204623
:10230000FFF797FF70BD2046FFF793FF0020E063C3
:1023100070BD03062BD50B0629D594F8390021286A
:10232000F6D1A068B0F5805F01D12069B0B1206A14
:10233000411C2162216800784860E08C401E000446
:10234000000CE084E4D12068C16821F08001C16004
:102350002068C16841F04001C16070BD206A0088FA
:10236000C0F308005060206A801C2062E5E7400648
:10237000F3D54806F1D5D168204621F04001D1605F
:10238000202184F8391000F026FA70BD1F310008B2
:1023900070B5040004D094F83900002510B106E0AF
:1023A000012070BD84F83850204600F023F8242026
:1023B00084F839002068C16821F40051C1602046CA
:1023C00000F05AFF2068016921F490410161206802
:1023D000416921F02A0141612068C16841F400513E
:1023E000C160E563202084F8390084F83A000020B9
:1023F00070BD00002DE9F04385B0002500950195E2
:10240000029503950446DFF85C82D0F800C0964838
:1024100002210322954B102780264FF48069C44582
:102420005AD1D0F818C04CF4804CC0F818C0D0F87D
:1024300018C00CF4804CCDF810C0D0F818C04CF087
:10244000040CC0F818C08069039200F004000490E6
:102450000802CDE90001694698461846FEF756FF86
:10246000CDE90095694640460295FEF74FFFDFF83B
:1024700004827F494046B146C0E90015C0E90256D2
:10248000C8F81050C8F81450C8F81850C8F81C50B4
:10249000FEF7C4FE08B1FEF78BFD764E7448C4F813
:1024A000348044361438C8F824403060C6E90175D9
:1024B000C6E903957561B5613046F561FEF7AEFE7C
:1024C00008B1FEF775FD2663002201212520746204
:1024D000FFF786F8252065E0DFF89C81C44566D1CA
:1024E000D0F81CC04CF4003CC0F81CC0D0F81CC094
:1024F0000CF4003CCDF810C0D0F818C04CF0040C1F
:10250000C0F818C08069039200F004000490042011
:10251000CDE90001694698461846FEF7F7FE082007
:10252000CDE90005A946694640460295FEF7EEFE54
:10253000DFF840814E4908F1880840461431C0E96F
:102540000015C0E90256C8F81050C8F81450C8F871
:102550001850C8F81C50FEF761FE08B1FEF728FDC0
:10256000444D4348C4F83480CC352830C8F8244062
:10257000C5E90007C5E90296C5F81090C5F81490A2
:10258000C5F818902846C5F81C90FEF747FE08B11C
:10259000FEF70EFD25630022012126206C62FFF765
:1025A0001FF82620FFF70EF805B0BDE8F083334B87
:1025B0009C45F9D1C36943F48023C361C36903F423
:1025C00080230493836943F0080383618069CDE924
:1025D000009100F00800CDE90320DFF8A4806946EF
:1025E0004046FEF793FE4FF40060CDE900056946D2
:1025F00040460295FEF78AFEDFF888801C49404677
:102600002839C0E90015C0E90256C8F81050C8F8CA
:102610001450C8F81850B146C8F81C50FEF7FEFD1B
:1026200008B1FEF7C5FC174E1148C4F83480443693
:102630003C38C8F824403060C6E90175C6E9039506
:102640007561B5613046F561FEF7E8FD08B1FEF74A
:10265000AFFC26630022012127207462FEF7C0FF31
:1026600027209FE700380140001002400008014089
:1026700058000240B40400200044004000480040DC
:10268000000C0140C4050020F8B5044690F83A005B
:1026900020283CD1C1B3BAB394F83800012836D011
:1026A000012084F83800A162A2850025E56322207C
:1026B00084F83A00636B17489862636B1648D862D7
:1026C000636B16481863606B134645630846666B78
:1026D000216802463046091DFEF7CEFD20680168DC
:1026E0004168009184F83850C16841F48071C1603C
:1026F0002068416941F0010141612068416941F070
:10270000400141610020F8BDFFE70120FBE7022006
:10271000F9E7000079310008B53100082F310008D1
:10272000704770472DE9F843044690F839001F467A
:1027300016460D4620284CD1C5B1BEB194F83800DC
:10274000012846D0012084F838004FF00008C4F872
:102750003C80212084F83900FEF7D2FEA684814611
:10276000E684A068B0F5805F03D004E00120BDE8F6
:10277000F883206928B12E465FF0000584F8388080
:102780000EE00026FAE78021204600F0D1FDA0B936
:10279000AEB116F8010B21684860E08C401EE08461
:1027A000E08C4B464FF0000200970028EBD14FF031
:1027B0004001204600F0BCFD30B10320D7E735F8DA
:1027C000020BC0F30800E6E7202084F8390000205F
:1027D000CDE70220CBE7704770B537490025374C6D
:1027E00088421FD1E078012818D1217834A000F068
:1027F0004BFE2278C82335492F48FFF793FF01216C
:102800003248FEF78AFA0020304902E00D54401C9D
:10281000C0B222789042F9D32570E570C8222B49C6
:10282000254843E02A4988421ED12079012816D143
:10283000617823A000F028FE6278C82323491E484F
:10284000C831FFF76FFF21490020C83102E00D5465
:10285000401CC0B262789042F9D3657025711B4963
:10286000C822C8311A4821E01A49884222D1607929
:10287000012818D1A17812A000F006FEA278C82382
:1028800015490D48FFF74EFF03211348FEF745FA9F
:102890000020114902E00D54401CC0B2A2789042C1
:1028A000F9D3A57065710C490A48C822BDE870408B
:1028B000FFF7EABE70BD0000F40300200000002016
:1028C00072785F6C656E3D25640A00004000002050
:1028D0003404002074040020D0010020FEE7000032
:1028E00070B5194D80212846FEF700FEC400402136
:1028F0002846FEF7FBFD44EA800420212846FEF727
:10290000F5FD44EA4000C6B210212846FEF7EEFD70
:1029100040EA06040F2C0DD00A20FEF7E5FC204605
:102920000F2C07D0072C07D00B2C07D00D2C07D06D
:102930000E2807D0002070BD012070BD022070BDA0
:10294000032070BD042070BD000C01402DE9F04152
:102950002F4E00244FF40047224639463046FEF7FA
:10296000CAFDFFF7BDFF050005D000BFFFF7B8FFA8
:102970000028FBD12C460122394635463046FEF769
:10298000BAFD4FF48047002239462846FEF7B3FDD2
:10299000FFF7A6FF060005D0FFF7A2FF0028FBD136
:1029A000361DF4B2012239462E462846FEF7A3FD15
:1029B0004FF40057002239463046FEF79CFDFFF7E2
:1029C0008FFF050006D000BFFFF78AFF0028FBD16C
:1029D0000835ECB2012239463046FEF78CFD4FF443
:1029E0008057002239463046FEF785FDFFF778FF15
:1029F000050005D0FFF774FF0028FBD10C35ECB2C1
:102A0000012239463046FEF776FD2046BDE8F081CA
:102A1000000C014010B5FFF799FF11282AD2DFE81A
:102A200000F029090B0D0F11131517191B1D1F217C
:102A300023252700312010BD342010BD372010BDC4
:102A40002A2010BD322010BD352010BD382010BD09
:102A5000302010BD332010BD362010BD392010BDF0
:102A6000232010BD412010BD422010BD432010BDC9
:102A7000442010BD002010BD1D4808B5416941F03B
:102A8000010141614069002200F0010000901146FF
:102A90000C20FEF7A5FD0C20FEF794FD0022114648
:102AA0000D20FEF79DFD0D20FEF78CFD0022114646
:102AB0000E20FEF795FD0E20FEF784FD0022114644
:102AC0000F20FEF78DFD0F20FEF77CFD0022114642
:102AD0001020FEF785FD1020FEF774FD0022114640
:102AE0001120FEF77DFDBDE808401120FEF76ABD0C
:102AF000001002402DE9F04786B0002430480094D1
:102B0000019402940394816941F01001816181690B
:102B100001F010010491816941F020018161816916
:102B200001F020010491816941F004018161816912
:102B300001F004010491816941F00801816180691B
:102B4000012200F00800DFF87C805503049029463C
:102B50004046FEF7D0FCDFF8709000223021484656
:102B6000FEF7C9FCDFF864A04FF470470122394634
:102B70005046FEF7C0FC0095022601250396CDE9DC
:102B8000015469464046FEF7C1FB3020CDE90005FF
:102B9000CDE9024669464846FEF7B8FB0097039622
:102BA000CDE9015469465046FEF7B0FBF0208DE8B0
:102BB000310069465046FEF7A9FB06B0BDE8F08734
:102BC000001002400010014000080140000C0140CC
:102BD00010B58EB000240794089409940A940B94BD
:102BE0001C2168460C94FDF7B4FA23482149016082
:102BF0004721C0E9011442F20F71C0E9031480219A
:102C00008161FEF7E5FF08B1FEF7D2F94FF480507D
:102C1000079007A91848FFF767F808B1FEF7C8F949
:102C20001548FFF70BFA08B1FEF7C2F90B940BA990
:102C300011480C94FEF798FF08B1FEF7B9F960202F
:102C4000CDE900040294002269460B480494FFF782
:102C500092F908B1FEF7ACF9042269460648FFF77D
:102C60008AF908B1FEF7A4F90348FFF75DF90EB041
:102C700010BD0000000400406403002010B586B0C1
:102C80000024184800940194029403940494144975
:102C90000594016041F6BB31C0E9011442F20F71A5
:102CA000C0E9031480218161FEF792FF08B1FEF7AD
:102CB0007FF94FF48050009069460A48FFF714F8F6
:102CC00008B1FEF775F9049404A906480594FEF7C7
:102CD0004BFF002801D0FEF76BF906B010BD0000D5
:102CE00000080040AC0300200C4810B50A49016000
:102CF0004FF4E1314160002181600C22C160C0E9E4
:102D000004128161C161FFF743FB002803D0BDE8D5
:102D10001040FEF74DB910BD00380140F40300200B
:102D20000C4810B50A4901604FF4E13141600021BF
:102D300081600C22C160C0E904128161C161FFF7AA
:102D400027FB002803D0BDE81040FEF731B910BDC5
:102D500000440040340400200C4810B50A490160CA
:102D60004FF4E1314160002181600C22C160C0E973
:102D700004128161C161FFF70BFB002803D0BDE89D
:102D80001040FEF715B910BD004800407404002043
:102D9000FEE770477047000070B5FFF73BFE27491C
:102DA000002888710ED00025254C23280BD04328FD
:102DB0003CD0442830D094F8C810605414F8C80FA0
:102DC000401C207070BD00211D48FDF7A6FF84F84F
:102DD000C850C8211A48FDF7BCF91A4C002220211E
:102DE0002046FEF788FB012210212046FEF783FBD8
:102DF00041F28830FEF778FA002210212046FEF7D3
:102E00007AFB4FF47A70FEF76FFA2046BDE8704007
:102E100001222021FEF76FBB94F8C8000028D1D012
:102E2000401EC0B284F8C800255470BDC8210448B3
:102E3000FDF78FF984F8C85070BD00000000002035
:102E400098020020000801407047000010B5FDF70F
:102E5000EEFA074A074BFDF767FA0022064BFDF72B
:102E6000BCF9FDF724FBFDF7EFFA80B210BD0000BE
:102E70008EE3388EE338264000407F40FEF746BBA5
:102E800030B58FB028216846FDF763F914210AA8F0
:102E9000FDF75FF901210804CDE900100024029438
:102EA00002250491CDE907504FF4E01009906846DF
:102EB000FEF7B4FC0F20CDE90A056802CDE90C400D
:102EC00002210AA80E94FEF7BDFB0FB030BD70477B
:102ED0000148FEF775BF0000640300200148FEF7BB
:102EE0006FBF0000AC030020F0B50268164B174C12
:102EF000174D4FF08047984205D0B84203D0A0420A
:102F000001D0A84203D122F070064A6832439842A9
:102F100005D0B84203D0A04201D0A84203D122F488
:102F20004074CA6822434C6922F080022243026046
:102F30008A68C2620A688262984201D109690163A3
:102F400001214161F0BD0000002C0140000400405F
:102F50000008004010B501F01F030121046A9940E8
:102F60008C430462016A9A401143016210BD10B59E
:102F7000846842EA032224F47F440A4322438260A5
:102F800010BD826822F070020A4342F0070181609E
:102F90007047000030B5026A22F001020262026A44
:102FA0004368846924F073050C682C4322F0020501
:102FB0008A682A430A4DA8420BD122F00805CA6844
:102FC00023F440732A434D6922F004021D438B69A8
:102FD0002B434360846149684163026230BD000055
:102FE000002C014030B5026A22F010020262026A2F
:102FF000436884690D6824F4E64444EA05248D6836
:1030000022F0200242EA05120B4DA8420ED1CD68F3
:1030100022F0800242EA05124D6923F4406343EA3C
:1030200085038D6922F0400243EA85034360846191
:1030300049688163026230BD002C014030B5026AEC
:1030400022F480720262036A4268C46923F4007346
:1030500024F073050C682C438D6843EA05230C4D5E
:10306000A8420ED1CD6823F4006343EA05234D69DD
:1030700022F4405242EA05128D6923F4806342EA49
:1030800005124260C4614968C163036230BD00003B
:10309000002C014030B5026A22F480520262046AB8
:1030A0004268C3690D6823F4E64343EA05238D684B
:1030B00024F4005444EA0534064DA84204D14D6975
:1030C00022F4804242EA85124260C3614968016489
:1030D000046230BD002C014010B5036A046A24F07C
:1030E00001040462846924F0F00444EA021423F029
:1030F0000A020A438461026210BD10B5036A23F01C
:10310000100303628369046A23F4704343EA0232C2
:1031100024F0A00343EA01118261016210BD10B5E1
:10312000406A0021C185C184FFF783F810BD70B5E6
:10313000446A2068406994F83910C0F3C010002533
:10314000212904D118B1E584204600F046F8206812
:10315000406994F83A10C0F38010222904D118B1C4
:10316000E585204600F02BF8E06B40F01000E063AE
:103170002046FFF75EF870BD10B50146406A096849
:103180000968890613D40021C1850168CA6822F440
:103190008072CA6001684A6922F001024A610168CE
:1031A0004A6922F040024A61202180F83A10FFF774
:1031B000B7FA10BD10B5406AFFF7B3FA10BD016849
:1031C000CA6822F49072CA6001684A6922F001025A
:1031D0004A61202180F83A1070470168CA6822F0DD
:1031E000C002CA60202180F83910704710B590F8ED
:1031F0003A10222901D0022010BD82684FF480537A
:103200009A4201D1016921B1816A9A421BD04AB127
:103210000AE00268816A5268C2F308020A80816A81
:10322000891C08E0026972B10268526802F07F02EC
:103230000A70816A491C8162C18D491E0904090C0A
:10324000C18503D016E002685268F1E70168CA68D8
:1032500022F02002CA600168CA6822F48072CA6043
:1032600001684A6922F001024A61202180F83A107F
:10327000FFF756FA002010BD70B5044600680169DA
:10328000E26821F44051114301612169A0680843BB
:10329000616908432168CA6841F20C639A4302439A
:1032A000CA6020684169A26921F4407111434161FB
:1032B0001E492068884202D1FEF76AFA01E0FEF753
:1032C00057FA00EBC00101EB001260686421800036
:1032D000B2FBF0F3B3FBF1F36FF018067343B2FBEC
:1032E000F0F5B2FBF0F605EB8305322303EB051591
:1032F000B5FBF1F5B6FBF1F605F0F00505EB0615AB
:10330000B2FBF0F6B2FBF0F0B0FBF1F06FF0180298
:10331000504306EB800003EB0010B0FBF1F0216896
:1033200000F00F002844886070BD000000380140A4
:103330002DE9F041984617460E460446069D1DE0CD
:10334000681C1BD02DB1FEF7DBF8A0EB0800A842EB
:1033500014D92068C16821F4D071C1602068416926
:1033600021F001014161202084F8390084F83A00FD
:10337000002084F838000320BDE8F0812068006850
:1033800036EA000004D00020B842D9D00020F3E78C
:103390000120F9E70E4808B500680168C1F3001183
:1033A00089B1016841680091016840680848FEF7EA
:1033B00014FF0848006840680749C0F1C800087059
:1033C000064901200870BDE808400148FEF732BFF9
:1033D000F4030020B40400200000002003000020BB
:1033E0000F4808B500680168C1F30011009189B168
:1033F000016841680091016840680948FEF7EDFEE8
:103400000848006840680849C0F1C80008700749CA
:1034100001200870BDE808400148FEF70BBF00001E
:10342000340400203C05002001000020040000209E
:103430000F4808B500680168C1F3001199B101682F
:1034400041680091016840680948FEF7C6FE0948D6
:1034500000684068084A01211170084AC0F1C8009C
:10346000107007480170BDE808400148FEF7E2BE51
:1034700074040020C4050020230000200200002066
:1034800005000020FEE700000FB4054B10B503A9AE
:10349000044A029800F054F810BC5DF814FB0000D8
:1034A0002D370008380000200FB4084B10B504A9D0
:1034B00002AA039800F044F8044602A9002000F094
:1034C0001BF9204610BC5DF814FB0000F93600081B
:1034D0000907090E002804DB00F1E02080F8001441
:1034E000704700F00F0000F1E02080F8141D7047D5
:1034F000004870473C000020014800687047000009
:103500003C00002002E008C8121F08C1002AFAD1BE
:1035100070477047002001E001C1121F002AFBD153
:103520007047000001490860704700003C0000201F
:1035300030380A2801D2012070470020704700006F
:103540002DE9FF4F8BB09A460F460546002606E050
:1035500025280BD052460D9990476D1C761C287873
:103560000028F5D10FB03046BDE8F08F0024A0460A
:103570000122604900E0044315F8013F203B02FAB4
:1035800003F00842F7D128782E2817D115F8010F3B
:1035900044F004042A280ED06FF02F022878A0F1FE
:1035A000300109290AD808EB880102EB410100EB40
:1035B00001086D1CF2E757F8048B6D1C2878692808
:1035C0003ED006DC0028CDD063280BD0642804D17F
:1035D00036E0732810D075284BD052460D9990478D
:1035E000761C85E017F8040B8DF8000000208DF89C
:1035F0000100E946012003E057F8049B4FF0FF303B
:1036000061074FF0000401D40AE0641C44450DDA60
:103610008442FADB19F804100029F6D106E0641C94
:103620008442FCDB19F804100029F8D1264404E098
:1036300019F8010B52460D999047641EF8D257E0D5
:1036400001CF4FF00A0B002802DA40422D2102E0A0
:10365000210504D52B218DF82410012103E0E10779
:1036600005D02021F7E70DF1200908910CE0002199
:10367000F9E701CF4FF00A0BF9E75946FCF733FFA2
:1036800001F1300209F8012D0028F6D1ADEB090057
:1036900000F1200B600701D44FF00108D84502DD8E
:1036A000A8EB0B0000E000208046002406E009A8FB
:1036B0005246005D0D999047641C761C0898844220
:1036C000F5DB04E0302052460D999047761CB8F1A6
:1036D0000001A8F10108F5DC05E019F8010B5246DC
:1036E0000D999047761CBBF10001ABF1010BF4DCA6
:1036F0006D1C34E7092801000A68531C0B60107028
:10370000704730B583B00446FFF7F6FE054600204B
:10371000CDE90000024621466846FCF736FF284600
:10372000FFF700FFDDE9000103B030BD13B54FF630
:10373000FF73012269460248FEF7F4FF00981CBDA2
:10374000F4030020FDF7EAFEFFF79AFBFFF7D2F93A
:10375000FFF792F9FFF7C8FAFFF7E2FAFFF7FCFA72
:10376000FFF736FAFFF78AFA21480068C16841F08E
:103770001001C160C8221F491D48FEF785FF1E4881
:103780000068C16841F01001C1601A49C822C831FF
:103790001948FEF779FF19480068C16841F0100127
:1037A000C160C82216491548FEF76EFF0021154872
:1037B000FEF774FC04211348FEF770FC1148FEF775
:1037C00067FA1148FEF764FA104CE07818B92079CE
:1037D00008B9607940B10648FEF7FEFF0648FEF7DB
:1037E000FBFF0648FEF7F8FFFFF7D6FAEDE700000B
:1037F000F403002040000020340400207404002062
:10380000D001002064030020AC0300200000002051
:103810000000000000000000010203040607080980
:1038200000000000010203040040404040404040CE
:103830004040414141414140404040404040404083
:103840004040404040404040400502020202020227
:103850000202020202020202022020202020202076
:10386000202020020202020202029090909090908A
:103870001010101010101010101010101010101048
:1038800010101010020202020202888888888888BC
:1038900008080808080808080808080808080808A8
:1038A0000808080802020202400000002938000847
:1038B000D038000800000020400000000435000857
:1038C0001039000840000020D80A00001435000814
:1038D0000000000000000000000000001E000000CA
:1038E00000000000000000000000000000000000D8
:1038F00000000000010000001000000000000000B7
:103900000024F4000000000000000000000000009F
:04000005080000ED02
:00000001FF
